{
  "_format": "hh-sol-artifact-1",
  "contractName": "TestUniswap",
  "sourceName": "contracts/TestUniswap.sol",
  "abi": [
    {
      "inputs": [],
      "name": "addressData",
      "outputs": [
        {
          "internalType": "address",
          "name": "",
          "type": "address"
        }
      ],
      "stateMutability": "view",
      "type": "function"
    },
    {
      "inputs": [
        {
          "internalType": "uint256",
          "name": "amountIn",
          "type": "uint256"
        },
        {
          "internalType": "address",
          "name": "_tokenIn",
          "type": "address"
        },
        {
          "internalType": "address",
          "name": "_tokenOut",
          "type": "address"
        }
      ],
      "name": "getQuote",
      "outputs": [
        {
          "internalType": "uint256[]",
          "name": "",
          "type": "uint256[]"
        }
      ],
      "stateMutability": "nonpayable",
      "type": "function"
    },
    {
      "inputs": [
        {
          "internalType": "uint256",
          "name": "amountOutMin",
          "type": "uint256"
        },
        {
          "internalType": "address",
          "name": "_tokenOut",
          "type": "address"
        },
        {
          "internalType": "address",
          "name": "_to",
          "type": "address"
        }
      ],
      "name": "swapEthForTokens",
      "outputs": [],
      "stateMutability": "payable",
      "type": "function"
    },
    {
      "inputs": [
        {
          "internalType": "uint256",
          "name": "amountIn",
          "type": "uint256"
        },
        {
          "internalType": "uint256",
          "name": "amountOutMin",
          "type": "uint256"
        },
        {
          "internalType": "address",
          "name": "_tokenIn",
          "type": "address"
        },
        {
          "internalType": "address",
          "name": "_to",
          "type": "address"
        }
      ],
      "name": "swapTokensForEth",
      "outputs": [],
      "stateMutability": "nonpayable",
      "type": "function"
    },
    {
      "inputs": [
        {
          "internalType": "address",
          "name": "_tokenIn",
          "type": "address"
        },
        {
          "internalType": "address",
          "name": "_tokenOut",
          "type": "address"
        },
        {
          "internalType": "uint256",
          "name": "_amountIn",
          "type": "uint256"
        },
        {
          "internalType": "uint256",
          "name": "_amountOutMin",
          "type": "uint256"
        },
        {
          "internalType": "address",
          "name": "_to",
          "type": "address"
        }
      ],
      "name": "swapTokensForTokens",
      "outputs": [],
      "stateMutability": "nonpayable",
      "type": "function"
    },
    {
      "inputs": [
        {
          "internalType": "uint256",
          "name": "",
          "type": "uint256"
        }
      ],
      "name": "uintData",
      "outputs": [
        {
          "internalType": "uint256",
          "name": "",
          "type": "uint256"
        }
      ],
      "stateMutability": "view",
      "type": "function"
    },
    {
      "inputs": [],
      "name": "weth",
      "outputs": [
        {
          "internalType": "address",
          "name": "",
          "type": "address"
        }
      ],
      "stateMutability": "nonpayable",
      "type": "function"
    }
  ],
  "bytecode": "0x608060405234801561001057600080fd5b50611599806100206000396000f3fe6080604052600436106100705760003560e01c806367538a241161004e57806367538a24146100f95780638a8ed36d14610122578063ae68676c1461014b578063d0eb18d61461018857610070565b80631083ac921461007557806336b830af146100b25780633fc8cef3146100ce575b600080fd5b34801561008157600080fd5b5061009c60048036038101906100979190610dee565b6101b3565b6040516100a99190610e2a565b60405180910390f35b6100cc60048036038101906100c79190610ea3565b6101d7565b005b3480156100da57600080fd5b506100e3610406565b6040516100f09190610f05565b60405180910390f35b34801561010557600080fd5b50610120600480360381019061011b9190610f20565b610502565b005b34801561012e57600080fd5b5061014960048036038101906101449190610f9b565b6107d5565b005b34801561015757600080fd5b50610172600480360381019061016d9190610ea3565b610b12565b60405161017f91906110c0565b60405180910390f35b34801561019457600080fd5b5061019d610d14565b6040516101aa9190610f05565b60405180910390f35b600081815481106101c357600080fd5b906000526020600020016000915090505481565b6060600267ffffffffffffffff8111156101f4576101f36110e2565b5b6040519080825280602002602001820160405280156102225781602001602082028036833780820191505090505b509050737a250d5630b4cf539739df2c5dacb4c659f2488d73ffffffffffffffffffffffffffffffffffffffff1663ad5c46486040518163ffffffff1660e01b815260040160206040518083038186803b15801561027f57600080fd5b505afa158015610293573d6000803e3d6000fd5b505050506040513d601f19601f820116820180604052508101906102b79190611126565b816000815181106102cb576102ca611153565b5b602002602001019073ffffffffffffffffffffffffffffffffffffffff16908173ffffffffffffffffffffffffffffffffffffffff1681525050828160018151811061031a57610319611153565b5b602002602001019073ffffffffffffffffffffffffffffffffffffffff16908173ffffffffffffffffffffffffffffffffffffffff1681525050737a250d5630b4cf539739df2c5dacb4c659f2488d73ffffffffffffffffffffffffffffffffffffffff16637ff36ab534868486426040518663ffffffff1660e01b81526004016103a89493929190611240565b6000604051808303818588803b1580156103c157600080fd5b505af11580156103d5573d6000803e3d6000fd5b50505050506040513d6000823e3d601f19601f820116820180604052508101906103ff91906113cb565b5050505050565b6000737a250d5630b4cf539739df2c5dacb4c659f2488d73ffffffffffffffffffffffffffffffffffffffff1663ad5c46486040518163ffffffff1660e01b815260040160206040518083038186803b15801561046257600080fd5b505afa158015610476573d6000803e3d6000fd5b505050506040513d601f19601f8201168201806040525081019061049a9190611126565b600160006101000a81548173ffffffffffffffffffffffffffffffffffffffff021916908373ffffffffffffffffffffffffffffffffffffffff160217905550600160009054906101000a900473ffffffffffffffffffffffffffffffffffffffff16905090565b8473ffffffffffffffffffffffffffffffffffffffff166323b872dd3330866040518463ffffffff1660e01b815260040161053f93929190611414565b602060405180830381600087803b15801561055957600080fd5b505af115801561056d573d6000803e3d6000fd5b505050506040513d601f19601f820116820180604052508101906105919190611483565b508473ffffffffffffffffffffffffffffffffffffffff1663095ea7b3737a250d5630b4cf539739df2c5dacb4c659f2488d856040518363ffffffff1660e01b81526004016105e19291906114b0565b602060405180830381600087803b1580156105fb57600080fd5b505af115801561060f573d6000803e3d6000fd5b505050506040513d601f19601f820116820180604052508101906106339190611483565b506060600267ffffffffffffffff811115610651576106506110e2565b5b60405190808252806020026020018201604052801561067f5781602001602082028036833780820191505090505b509050858160008151811061069757610696611153565b5b602002602001019073ffffffffffffffffffffffffffffffffffffffff16908173ffffffffffffffffffffffffffffffffffffffff168152505084816001815181106106e6576106e5611153565b5b602002602001019073ffffffffffffffffffffffffffffffffffffffff16908173ffffffffffffffffffffffffffffffffffffffff1681525050737a250d5630b4cf539739df2c5dacb4c659f2488d73ffffffffffffffffffffffffffffffffffffffff166338ed173985858486426040518663ffffffff1660e01b81526004016107759594939291906114d9565b600060405180830381600087803b15801561078f57600080fd5b505af11580156107a3573d6000803e3d6000fd5b505050506040513d6000823e3d601f19601f820116820180604052508101906107cc91906113cb565b50505050505050565b8173ffffffffffffffffffffffffffffffffffffffff166323b872dd3330876040518463ffffffff1660e01b815260040161081293929190611414565b602060405180830381600087803b15801561082c57600080fd5b505af1158015610840573d6000803e3d6000fd5b505050506040513d601f19601f820116820180604052508101906108649190611483565b508173ffffffffffffffffffffffffffffffffffffffff1663095ea7b3737a250d5630b4cf539739df2c5dacb4c659f2488d866040518363ffffffff1660e01b81526004016108b49291906114b0565b602060405180830381600087803b1580156108ce57600080fd5b505af11580156108e2573d6000803e3d6000fd5b505050506040513d601f19601f820116820180604052508101906109069190611483565b506060600267ffffffffffffffff811115610924576109236110e2565b5b6040519080825280602002602001820160405280156109525781602001602082028036833780820191505090505b509050828160008151811061096a57610969611153565b5b602002602001019073ffffffffffffffffffffffffffffffffffffffff16908173ffffffffffffffffffffffffffffffffffffffff1681525050737a250d5630b4cf539739df2c5dacb4c659f2488d73ffffffffffffffffffffffffffffffffffffffff1663ad5c46486040518163ffffffff1660e01b815260040160206040518083038186803b1580156109fe57600080fd5b505afa158015610a12573d6000803e3d6000fd5b505050506040513d601f19601f82011682018060405250810190610a369190611126565b81600181518110610a4a57610a49611153565b5b602002602001019073ffffffffffffffffffffffffffffffffffffffff16908173ffffffffffffffffffffffffffffffffffffffff1681525050737a250d5630b4cf539739df2c5dacb4c659f2488d73ffffffffffffffffffffffffffffffffffffffff1663791ac94786868486426040518663ffffffff1660e01b8152600401610ad99594939291906114d9565b600060405180830381600087803b158015610af357600080fd5b505af1158015610b07573d6000803e3d6000fd5b505050505050505050565b606080600267ffffffffffffffff811115610b3057610b2f6110e2565b5b604051908082528060200260200182016040528015610b5e5781602001602082028036833780820191505090505b5090508381600081518110610b7657610b75611153565b5b602002602001019073ffffffffffffffffffffffffffffffffffffffff16908173ffffffffffffffffffffffffffffffffffffffff16815250508281600181518110610bc557610bc4611153565b5b602002602001019073ffffffffffffffffffffffffffffffffffffffff16908173ffffffffffffffffffffffffffffffffffffffff1681525050737a250d5630b4cf539739df2c5dacb4c659f2488d73ffffffffffffffffffffffffffffffffffffffff1663d06ca61f86836040518363ffffffff1660e01b8152600401610c4e929190611533565b60006040518083038186803b158015610c6657600080fd5b505afa158015610c7a573d6000803e3d6000fd5b505050506040513d6000823e3d601f19601f82011682018060405250810190610ca391906113cb565b60009080519060200190610cb8929190610d3a565b506000805480602002602001604051908101604052809291908181526020018280548015610d0557602002820191906000526020600020905b815481526020019060010190808311610cf1575b50505050509150509392505050565b600160009054906101000a900473ffffffffffffffffffffffffffffffffffffffff1681565b828054828255906000526020600020908101928215610d76579160200282015b82811115610d75578251825591602001919060010190610d5a565b5b509050610d839190610d87565b5090565b5b80821115610da0576000816000905550600101610d88565b5090565b6000604051905090565b600080fd5b600080fd5b6000819050919050565b610dcb81610db8565b8114610dd657600080fd5b50565b600081359050610de881610dc2565b92915050565b600060208284031215610e0457610e03610dae565b5b6000610e1284828501610dd9565b91505092915050565b610e2481610db8565b82525050565b6000602082019050610e3f6000830184610e1b565b92915050565b600073ffffffffffffffffffffffffffffffffffffffff82169050919050565b6000610e7082610e45565b9050919050565b610e8081610e65565b8114610e8b57600080fd5b50565b600081359050610e9d81610e77565b92915050565b600080600060608486031215610ebc57610ebb610dae565b5b6000610eca86828701610dd9565b9350506020610edb86828701610e8e565b9250506040610eec86828701610e8e565b9150509250925092565b610eff81610e65565b82525050565b6000602082019050610f1a6000830184610ef6565b92915050565b600080600080600060a08688031215610f3c57610f3b610dae565b5b6000610f4a88828901610e8e565b9550506020610f5b88828901610e8e565b9450506040610f6c88828901610dd9565b9350506060610f7d88828901610dd9565b9250506080610f8e88828901610e8e565b9150509295509295909350565b60008060008060808587031215610fb557610fb4610dae565b5b6000610fc387828801610dd9565b9450506020610fd487828801610dd9565b9350506040610fe587828801610e8e565b9250506060610ff687828801610e8e565b91505092959194509250565b600081519050919050565b600082825260208201905092915050565b6000819050602082019050919050565b61103781610db8565b82525050565b6000611049838361102e565b60208301905092915050565b6000602082019050919050565b600061106d82611002565b611077818561100d565b93506110828361101e565b8060005b838110156110b357815161109a888261103d565b97506110a583611055565b925050600181019050611086565b5085935050505092915050565b600060208201905081810360008301526110da8184611062565b905092915050565b7f4e487b7100000000000000000000000000000000000000000000000000000000600052604160045260246000fd5b60008151905061112081610e77565b92915050565b60006020828403121561113c5761113b610dae565b5b600061114a84828501611111565b91505092915050565b7f4e487b7100000000000000000000000000000000000000000000000000000000600052603260045260246000fd5b600081519050919050565b600082825260208201905092915050565b6000819050602082019050919050565b6111b781610e65565b82525050565b60006111c983836111ae565b60208301905092915050565b6000602082019050919050565b60006111ed82611182565b6111f7818561118d565b93506112028361119e565b8060005b8381101561123357815161121a88826111bd565b9750611225836111d5565b925050600181019050611206565b5085935050505092915050565b60006080820190506112556000830187610e1b565b818103602083015261126781866111e2565b90506112766040830185610ef6565b6112836060830184610e1b565b95945050505050565b600080fd5b6000601f19601f8301169050919050565b6112ab82611291565b810181811067ffffffffffffffff821117156112ca576112c96110e2565b5b80604052505050565b60006112dd610da4565b90506112e982826112a2565b919050565b600067ffffffffffffffff821115611309576113086110e2565b5b602082029050602081019050919050565b600080fd5b60008151905061132e81610dc2565b92915050565b6000611347611342846112ee565b6112d3565b9050808382526020820190506020840283018581111561136a5761136961131a565b5b835b81811015611393578061137f888261131f565b84526020840193505060208101905061136c565b5050509392505050565b600082601f8301126113b2576113b161128c565b5b81516113c2848260208601611334565b91505092915050565b6000602082840312156113e1576113e0610dae565b5b600082015167ffffffffffffffff8111156113ff576113fe610db3565b5b61140b8482850161139d565b91505092915050565b60006060820190506114296000830186610ef6565b6114366020830185610ef6565b6114436040830184610e1b565b949350505050565b60008115159050919050565b6114608161144b565b811461146b57600080fd5b50565b60008151905061147d81611457565b92915050565b60006020828403121561149957611498610dae565b5b60006114a78482850161146e565b91505092915050565b60006040820190506114c56000830185610ef6565b6114d26020830184610e1b565b9392505050565b600060a0820190506114ee6000830188610e1b565b6114fb6020830187610e1b565b818103604083015261150d81866111e2565b905061151c6060830185610ef6565b6115296080830184610e1b565b9695505050505050565b60006040820190506115486000830185610e1b565b818103602083015261155a81846111e2565b9050939250505056fea2646970667358221220fc1e8a1d78d9693270d187ca3b62af5e9c8f5c4f54f011e30cf08f2926acb42464736f6c63430008090033",
  "linkReferences": {},
  "deployedLinkReferences": {}
}